{
  "_format": "hh-sol-artifact-1",
  "contractName": "TaskContract",
  "sourceName": "contracts/TaskContract.sol",
  "abi": [
    {
      "anonymous": false,
      "inputs": [
        {
          "indexed": false,
          "internalType": "uint256",
          "name": "taskId",
          "type": "uint256"
        }
      ],
      "name": "addTaskEvent",
      "type": "event"
    },
    {
      "anonymous": false,
      "inputs": [
        {
          "indexed": false,
          "internalType": "uint256",
          "name": "taskId",
          "type": "uint256"
        }
      ],
      "name": "updateTaskEvent",
      "type": "event"
    },
    {
      "inputs": [
        {
          "internalType": "string",
          "name": "_description",
          "type": "string"
        }
      ],
      "name": "addTask",
      "outputs": [],
      "stateMutability": "nonpayable",
      "type": "function"
    },
    {
      "inputs": [],
      "name": "getAllTasks",
      "outputs": [
        {
          "components": [
            {
              "internalType": "uint256",
              "name": "taskId",
              "type": "uint256"
            },
            {
              "internalType": "string",
              "name": "description",
              "type": "string"
            },
            {
              "internalType": "enum TaskContract.taskStatus",
              "name": "status",
              "type": "uint8"
            }
          ],
          "internalType": "struct TaskContract.task[]",
          "name": "",
          "type": "tuple[]"
        }
      ],
      "stateMutability": "view",
      "type": "function"
    },
    {
      "inputs": [
        {
          "internalType": "uint256",
          "name": "id",
          "type": "uint256"
        }
      ],
      "name": "markAsDone",
      "outputs": [],
      "stateMutability": "nonpayable",
      "type": "function"
    }
  ],
  "bytecode": "0x608060405234801561001057600080fd5b50610936806100206000396000f3fe608060405234801561001057600080fd5b50600436106100415760003560e01c80636723856214610046578063779900b414610062578063d74de14d14610080575b600080fd5b610060600480360381019061005b9190610558565b61009c565b005b61006a610192565b60405161007791906107cb565b60405180910390f35b61009a60048036038101906100959190610819565b6102c8565b005b60006001805490509050600160405180606001604052808381526020018481526020016001808111156100d2576100d161066e565b5b815250908060018154018082558091505060019003906000526020600020906003020160009091909190915060008201518160000155602082015181600101908051906020019061012492919061035b565b5060408201518160020160006101000a81548160ff021916908360018111156101505761014f61066e565b5b021790555050507f6274973e6ca824a58b27dc4a96020676adff66d51d7a2a3ebc14bd467aafc800816040516101869190610855565b60405180910390a15050565b60606001805480602002602001604051908101604052809291908181526020016000905b828210156102bf5783829060005260206000209060030201604051806060016040529081600082015481526020016001820180546101f39061089f565b80601f016020809104026020016040519081016040528092919081815260200182805461021f9061089f565b801561026c5780601f106102415761010080835404028352916020019161026c565b820191906000526020600020905b81548152906001019060200180831161024f57829003601f168201915b505050505081526020016002820160009054906101000a900460ff16600181111561029a5761029961066e565b5b60018111156102ac576102ab61066e565b5b81525050815260200190600101906101b6565b50505050905090565b600060018054905090506000600183815481106102e8576102e76108d1565b5b906000526020600020906003020160020160006101000a81548160ff0219169083600181111561031b5761031a61066e565b5b02179055507f176390f017ce2564f5cb6b1496414600f95bb0095925aa7050dce730c8ef39a08160405161034f9190610855565b60405180910390a15050565b8280546103679061089f565b90600052602060002090601f01602090048101928261038957600085556103d0565b82601f106103a257805160ff19168380011785556103d0565b828001600101855582156103d0579182015b828111156103cf5782518255916020019190600101906103b4565b5b5090506103dd91906103e1565b5090565b5b808211156103fa5760008160009055506001016103e2565b5090565b6000604051905090565b600080fd5b600080fd5b600080fd5b600080fd5b6000601f19601f8301169050919050565b7f4e487b7100000000000000000000000000000000000000000000000000000000600052604160045260246000fd5b6104658261041c565b810181811067ffffffffffffffff821117156104845761048361042d565b5b80604052505050565b60006104976103fe565b90506104a3828261045c565b919050565b600067ffffffffffffffff8211156104c3576104c261042d565b5b6104cc8261041c565b9050602081019050919050565b82818337600083830152505050565b60006104fb6104f6846104a8565b61048d565b90508281526020810184848401111561051757610516610417565b5b6105228482856104d9565b509392505050565b600082601f83011261053f5761053e610412565b5b813561054f8482602086016104e8565b91505092915050565b60006020828403121561056e5761056d610408565b5b600082013567ffffffffffffffff81111561058c5761058b61040d565b5b6105988482850161052a565b91505092915050565b600081519050919050565b600082825260208201905092915050565b6000819050602082019050919050565b6000819050919050565b6105e0816105cd565b82525050565b600081519050919050565b600082825260208201905092915050565b60005b83811015610620578082015181840152602081019050610605565b8381111561062f576000848401525b50505050565b6000610640826105e6565b61064a81856105f1565b935061065a818560208601610602565b6106638161041c565b840191505092915050565b7f4e487b7100000000000000000000000000000000000000000000000000000000600052602160045260246000fd5b600281106106ae576106ad61066e565b5b50565b60008190506106bf8261069d565b919050565b60006106cf826106b1565b9050919050565b6106df816106c4565b82525050565b60006060830160008301516106fd60008601826105d7565b50602083015184820360208601526107158282610635565b915050604083015161072a60408601826106d6565b508091505092915050565b600061074183836106e5565b905092915050565b6000602082019050919050565b6000610761826105a1565b61076b81856105ac565b93508360208202850161077d856105bd565b8060005b858110156107b9578484038952815161079a8582610735565b94506107a583610749565b925060208a01995050600181019050610781565b50829750879550505050505092915050565b600060208201905081810360008301526107e58184610756565b905092915050565b6107f6816105cd565b811461080157600080fd5b50565b600081359050610813816107ed565b92915050565b60006020828403121561082f5761082e610408565b5b600061083d84828501610804565b91505092915050565b61084f816105cd565b82525050565b600060208201905061086a6000830184610846565b92915050565b7f4e487b7100000000000000000000000000000000000000000000000000000000600052602260045260246000fd5b600060028204905060018216806108b757607f821691505b602082108114156108cb576108ca610870565b5b50919050565b7f4e487b7100000000000000000000000000000000000000000000000000000000600052603260045260246000fdfea26469706673582212202e0ea97cb12ac6228ebb6b7469c7c65d4c58ac0f0072ffbff83ec14aab30e64464736f6c63430008090033",
  "linkReferences": {},
  "deployedLinkReferences": {}
}