{
  "_format": "hh-sol-artifact-1",
  "contractName": "Transactions",
  "sourceName": "contracts/Transactions.sol",
  "abi": [
    {
      "anonymous": false,
      "inputs": [
        {
          "indexed": false,
          "internalType": "address",
          "name": "sender",
          "type": "address"
        },
        {
          "indexed": false,
          "internalType": "address",
          "name": "receiver",
          "type": "address"
        },
        {
          "indexed": false,
          "internalType": "uint256",
          "name": "amount",
          "type": "uint256"
        },
        {
          "indexed": false,
          "internalType": "string",
          "name": "message",
          "type": "string"
        },
        {
          "indexed": false,
          "internalType": "uint256",
          "name": "timestamp",
          "type": "uint256"
        },
        {
          "indexed": false,
          "internalType": "string",
          "name": "keyword",
          "type": "string"
        }
      ],
      "name": "Transfer",
      "type": "event"
    },
    {
      "inputs": [
        {
          "internalType": "address payable",
          "name": "receiver",
          "type": "address"
        },
        {
          "internalType": "uint256",
          "name": "amount",
          "type": "uint256"
        },
        {
          "internalType": "string",
          "name": "message",
          "type": "string"
        },
        {
          "internalType": "string",
          "name": "keyword",
          "type": "string"
        }
      ],
      "name": "addToBlockChain",
      "outputs": [],
      "stateMutability": "nonpayable",
      "type": "function"
    },
    {
      "inputs": [],
      "name": "getAllTransactions",
      "outputs": [
        {
          "components": [
            {
              "internalType": "address",
              "name": "sender",
              "type": "address"
            },
            {
              "internalType": "address",
              "name": "receiver",
              "type": "address"
            },
            {
              "internalType": "uint256",
              "name": "amount",
              "type": "uint256"
            },
            {
              "internalType": "string",
              "name": "message",
              "type": "string"
            },
            {
              "internalType": "uint256",
              "name": "timestamp",
              "type": "uint256"
            },
            {
              "internalType": "string",
              "name": "keyword",
              "type": "string"
            }
          ],
          "internalType": "struct Transactions.TransferStruct[]",
          "name": "",
          "type": "tuple[]"
        }
      ],
      "stateMutability": "view",
      "type": "function"
    }
  ],
  "bytecode": "0x608060405234801561001057600080fd5b50610b81806100206000396000f3fe608060405234801561001057600080fd5b50600436106100365760003560e01c806327506f531461003b578063b2da096014610059575b600080fd5b610043610075565b604051610050919061046a565b60405180910390f35b610073600480360381019061006e919061063f565b61007a565b005b606090565b600160008082825461008c919061070d565b9250508190555060016040518060c001604052803373ffffffffffffffffffffffffffffffffffffffff1681526020018673ffffffffffffffffffffffffffffffffffffffff16815260200185815260200184815260200142815260200183815250908060018154018082558091505060019003906000526020600020906006020160009091909190915060008201518160000160006101000a81548173ffffffffffffffffffffffffffffffffffffffff021916908373ffffffffffffffffffffffffffffffffffffffff16021790555060208201518160010160006101000a81548173ffffffffffffffffffffffffffffffffffffffff021916908373ffffffffffffffffffffffffffffffffffffffff1602179055506040820151816002015560608201518160030190816101c4919061094d565b506080820151816004015560a08201518160050190816101e4919061094d565b5050507f416cfa4330a4565f45c2fd2dd4826a83a37443aba2ce6f79477c7355afac35fa33858585428660405161022096959493929190610adc565b60405180910390a150505050565b600081519050919050565b600082825260208201905092915050565b6000819050602082019050919050565b600073ffffffffffffffffffffffffffffffffffffffff82169050919050565b60006102858261025a565b9050919050565b6102958161027a565b82525050565b6000819050919050565b6102ae8161029b565b82525050565b600081519050919050565b600082825260208201905092915050565b60005b838110156102ee5780820151818401526020810190506102d3565b60008484015250505050565b6000601f19601f8301169050919050565b6000610316826102b4565b61032081856102bf565b93506103308185602086016102d0565b610339816102fa565b840191505092915050565b600060c08301600083015161035c600086018261028c565b50602083015161036f602086018261028c565b50604083015161038260408601826102a5565b506060830151848203606086015261039a828261030b565b91505060808301516103af60808601826102a5565b5060a083015184820360a08601526103c7828261030b565b9150508091505092915050565b60006103e08383610344565b905092915050565b6000602082019050919050565b60006104008261022e565b61040a8185610239565b93508360208202850161041c8561024a565b8060005b85811015610458578484038952815161043985826103d4565b9450610444836103e8565b925060208a01995050600181019050610420565b50829750879550505050505092915050565b6000602082019050818103600083015261048481846103f5565b905092915050565b6000604051905090565b600080fd5b600080fd5b60006104ab8261025a565b9050919050565b6104bb816104a0565b81146104c657600080fd5b50565b6000813590506104d8816104b2565b92915050565b6104e78161029b565b81146104f257600080fd5b50565b600081359050610504816104de565b92915050565b600080fd5b600080fd5b7f4e487b7100000000000000000000000000000000000000000000000000000000600052604160045260246000fd5b61054c826102fa565b810181811067ffffffffffffffff8211171561056b5761056a610514565b5b80604052505050565b600061057e61048c565b905061058a8282610543565b919050565b600067ffffffffffffffff8211156105aa576105a9610514565b5b6105b3826102fa565b9050602081019050919050565b82818337600083830152505050565b60006105e26105dd8461058f565b610574565b9050828152602081018484840111156105fe576105fd61050f565b5b6106098482856105c0565b509392505050565b600082601f8301126106265761062561050a565b5b81356106368482602086016105cf565b91505092915050565b6000806000806080858703121561065957610658610496565b5b6000610667878288016104c9565b9450506020610678878288016104f5565b935050604085013567ffffffffffffffff8111156106995761069861049b565b5b6106a587828801610611565b925050606085013567ffffffffffffffff8111156106c6576106c561049b565b5b6106d287828801610611565b91505092959194509250565b7f4e487b7100000000000000000000000000000000000000000000000000000000600052601160045260246000fd5b60006107188261029b565b91506107238361029b565b925082820190508082111561073b5761073a6106de565b5b92915050565b7f4e487b7100000000000000000000000000000000000000000000000000000000600052602260045260246000fd5b6000600282049050600182168061078857607f821691505b60208210810361079b5761079a610741565b5b50919050565b60008190508160005260206000209050919050565b60006020601f8301049050919050565b600082821b905092915050565b6000600883026108037fffffffffffffffffffffffffffffffffffffffffffffffffffffffffffffffff826107c6565b61080d86836107c6565b95508019841693508086168417925050509392505050565b6000819050919050565b600061084a6108456108408461029b565b610825565b61029b565b9050919050565b6000819050919050565b6108648361082f565b61087861087082610851565b8484546107d3565b825550505050565b600090565b61088d610880565b61089881848461085b565b505050565b5b818110156108bc576108b1600082610885565b60018101905061089e565b5050565b601f821115610901576108d2816107a1565b6108db846107b6565b810160208510156108ea578190505b6108fe6108f6856107b6565b83018261089d565b50505b505050565b600082821c905092915050565b600061092460001984600802610906565b1980831691505092915050565b600061093d8383610913565b9150826002028217905092915050565b610956826102b4565b67ffffffffffffffff81111561096f5761096e610514565b5b6109798254610770565b6109848282856108c0565b600060209050601f8311600181146109b757600084156109a5578287015190505b6109af8582610931565b865550610a17565b601f1984166109c5866107a1565b60005b828110156109ed578489015182556001820191506020850194506020810190506109c8565b86831015610a0a5784890151610a06601f891682610913565b8355505b6001600288020188555050505b505050505050565b610a288161027a565b82525050565b6000610a49610a44610a3f8461025a565b610825565b61025a565b9050919050565b6000610a5b82610a2e565b9050919050565b6000610a6d82610a50565b9050919050565b610a7d81610a62565b82525050565b610a8c8161029b565b82525050565b600082825260208201905092915050565b6000610aae826102b4565b610ab88185610a92565b9350610ac88185602086016102d0565b610ad1816102fa565b840191505092915050565b600060c082019050610af16000830189610a1f565b610afe6020830188610a74565b610b0b6040830187610a83565b8181036060830152610b1d8186610aa3565b9050610b2c6080830185610a83565b81810360a0830152610b3e8184610aa3565b905097965050505050505056fea26469706673582212207b9b222072441dd0613db489e62632eaf4bd168c969e976608c3063783c498b064736f6c63430008120033",
  "linkReferences": {},
  "deployedLinkReferences": {}
}